:100000000C9452010C94D3070C94A8070C947D0710
:100010000C9452070C9427070C94FC060C94D10600
:100020000C94A6060C9483010C9483010C94830118
:100030000C9483010C9483010C9483010C94FE07AF
:100040000C9483010C9483010C9483010C94830120
:100050000C9483010C9483010C9483010C945C0632
:100060000C9483010C9426060C94FC050C948301DB
:100070000C9483010C9483010C9483010C948301F0
:100080000C9483010C9483010C9483010C948301E0
:100090000C9483010C9483010C9483010C948301D0
:1000A0000C9483010C9483010C9483010C948301C0
:1000B0000C9483010C9483010C9483010C948301B0
:1000C0000C9483010C9483010C9483010C948301A0
:1000D0000C9483010C9483010C9483010C94830190
:1000E0000C9483010C9408030C9471050C94010486
:1000F0000C941F030C94D4030C94A6030C94530487
:100100000C941B020C9427030C9468020C941F049B
:100110000C9429040C94C1010C9431030C943B03FE
:100120000C94BA030C94C2030C9415040C943F0372
:100130000C94D5010C94B2010C9423030C94B003DD
:100140000C9485010C9454040C940B040C9400033F
:100150000C94E3010C9474080C9404030C94350380
:100160000C942D030C94EE020C949C030C949703B6
:100170000C940F030C9415030C9492030C94190324
:100180000C94DE030C94E8030C94F7030C948E0596
:100190000C94CA030C94E9020C940C030000210097
:1001A000240027002A002D00300033000101000048
:1001B000040107010A0100002200250028002B008D
:1001C0002E003100340002010000050108010B017E
:1001D00005050505070508080808020202020A0AC3
:1001E00008080404040401010101010101010303E1
:1001F000030303030303040707070C0C0C0C0C0C8C
:100200000C0C0202020206060606060606060B0B88
:100210000B0B0B0B0B0B01021020200808102040C9
:1002200010204080020102010804020101020408BA
:100230001020408080402010080402018004020148
:100240008040201008040201080402010102040891
:1002500010204080010204081020408000000A0B9A
:1002600002090C0D0E080703040100000000000045
:10027000000000000000000000000000000000007E
:10028000000000000000000012111000000000003B
:10029000000000000000000000000000000000005E
:1002A0000000740811241FBECFEFD1E2DEBFCDBF26
:1002B00000E00CBF12E0A0E0B2E0E2E5FBE100E00C
:1002C0000BBF02C007900D92A633B107D9F723E008
:1002D000A6E3B2E001C01D92A134B207E1F711E03C
:1002E000C2E5D1E000E006C021970109802FFE01A0
:1002F0000E949F0DC135D10780E00807A9F70E9431
:10030000CD080C94A70D0C940000AF92BF92CF9231
:10031000DF92EF92FF920F931F93CF93DF936C01C5
:100320007B018B01040F151FEB015E01AE18BF08A6
:10033000C017D10759F06991D601ED91FC91019058
:10034000F081E02DC6011995892B79F7C501DF9160
:10035000CF911F910F91FF90EF90DF90CF90BF90C2
:10036000AF900895FC01538D448D252F30E0842FEC
:1003700090E0821B930B541710F0CF9608950197CD
:100380000895FC01918D828D981761F0A28DAE0FBA
:10039000BF2FB11D5D968C91928D9F5F9F73928F41
:1003A00090E008958FEF9FEF0895FC01918D828D6D
:1003B000981731F0828DE80FF11D858D90E008953A
:1003C0008FEF9FEF0895FC01918D228D892F90E092
:1003D000805C9F4F821B91098F739927089584E653
:1003E00092E00E94E30121E0892B09F420E0822FB2
:1003F0000895FC01A48DA80FB92FB11DA35ABF4FBA
:100400002C91848D90E001968F739927848FA68913
:10041000B7892C93A089B1898C91837080648C9367
:10042000938D848D981306C00288F389E02D808116
:100430008F7D80830895EF92FF920F931F93CF9348
:10044000DF93EC0181E0888F9B8D8C8D98131AC00F
:10045000E889F989808185FF15C09FB7F894EE89F6
:10046000FF896083E889F989808183708064808353
:100470009FBF81E090E0DF91CF911F910F91FF909E
:10048000EF900895F62E0B8D10E00F5F1F4F0F7346
:100490001127E02E8C8D8E110CC00FB607FCFACF01
:1004A000E889F989808185FFF5CFCE010E94F901A5
:1004B000F1CFEB8DEC0FFD2FF11DE35AFF4FF082D2
:1004C0009FB7F8940B8FEA89FB8980818062CFCF38
:1004D000CF93DF93EC01888D8823B9F0AA89BB897B
:1004E000E889F9898C9185FD03C0808186FD0DC066
:1004F0000FB607FCF7CF8C9185FFF2CF808185FF87
:10050000EDCFCE010E94F901E9CFDF91CF9108959F
:1005100080E090E0892B29F00E94EF0181110E9478
:10052000000080E090E0892B49F080E090E0892B8A
:1005300029F00E94000081110E94000080E090E0FC
:10054000892B49F080E090E0892B29F00E9400007F
:1005500081110E94000080E090E0892B49F080E04A
:1005600090E0892B29F00E94000081110C9400007A
:100570000895282F30E0F901E45AFD4F9491F901D4
:10058000EA5EFD4F449120533E4FF901249122230E
:1005900009F435C0992311F191509231F8F4E92F03
:1005A000F0E08827E952FD4F8F4F0C949F0D080310
:1005B0000C03E90200030403EE020F031503190301
:1005C0001F03230327032D033103EE0235033B03EF
:1005D0003F03809180008F7780938000E22FF0E0CE
:1005E000EE0FFF1FEA54FE4FA591B4918FB7F89418
:1005F000EC91611148C040954E234C938FBF0895F4
:10060000809180008F7DE8CF80918000877FE4CF4C
:1006100084B58F7784BDE2CF84B58F7DFBCF809189
:10062000B0008F778093B000D9CF8091B0008F7DDC
:10063000F9CF809190008F7780939000CFCF8091F9
:1006400090008F7DF9CF80919000877FF5CF8091CA
:10065000A0008F778093A000C1CF8091A0008F7DF4
:10066000F9CF8091A000877FF5CF809120018F770F
:1006700080932001B3CF809120018F7DF9CF8091AD
:100680002001877FF5CF4E2BB8CF582F282F30E091
:10069000F901EA5EFD4F4491F901E053FE4F849168
:1006A000882399F090E0880F991FFC01E456FE4FD3
:1006B000A591B491FC01EA54FE4F859194918FB7B6
:1006C000F894EC91E42BEC938FBF6115710521F444
:1006D00060E0852F0C94B9026F3F710511F461E061
:1006E000F8CFF901E45AFD4FE491E150E23108F00E
:1006F000B0C0F0E08827E058FC4F8F4F0C949F0D5E
:10070000920397039C03A603B0032904BA03C20310
:10071000CA03D403DE03E803F703010429040B042E
:1007200015041F0484B5806884BD67BD089584B531
:10073000806284BD68BD0895809180008068809348
:1007400080007093890060938800089580918000F4
:1007500080628093800070938B0060938A0008957C
:100760008091800088608093800070938D006093FA
:100770008C0008958091B00080688093B0006093F1
:10078000B30008958091B00080628093B0006093C0
:10079000B4000895809190008068809390007093D9
:1007A00099006093980008958091900080628093F2
:1007B000900070939B0060939A0008958091900040
:1007C00088608093900070939D0060939C000895D2
:1007D0008091A00080688093A0008091A0008F7B12
:1007E0008093A0007093A9006093A8000895809161
:1007F000A00080628093A0007093AB006093AA0079
:1008000008958091A00088608093A0007093AD004F
:100810006093AC000895809120018068809320014E
:1008200070932901609328010895809120018062CE
:100830008093200170932B0160932A010895809189
:10084000200188608093200170932D0160932C011A
:100850000895603871050CF042CF3ACF3FB7F89455
:1008600080914B0290914C02A0914D02B0914E02AA
:1008700026B5A89B05C02F3F19F00196A11DB11DFB
:100880003FBFBA2FA92F982F8827BC01CD01620F37
:10089000711D811D911D42E0660F771F881F991FF2
:1008A0004A95D1F7089508954F925F926F927F9283
:1008B0008F929F92AF92BF92CF92DF92EF92FF9270
:1008C0008090420290904302A0904402B090450272
:1008D000C501B4010E94560C26E636E640E654E413
:1008E0000E94AC0B20E030E044EB53E40E940B0D7F
:1008F0006B017C01C0926002D0926102E0926202C0
:10090000F092630280923E0290923F02A0924002D7
:10091000B092410220E030E044E352E460911002E2
:100920007091110280911202909113020E943B0B70
:100930006093110370931203809313039093140335
:10094000C0920D03D0920E03E0920F03F0921003B9
:10095000A70196010E943A0B2B013C01209105034F
:100960003091060340910703509108030E940B0D3C
:1009700020911D0330911E0340911F0350912003CD
:100980000E943B0B4B015C0180921D0390921E0361
:10099000A0921F03B0922003209101033091020323
:1009A0004091030350910403C301B2010E940B0D57
:1009B000A50194010E943B0B4B015C01209119039E
:1009C00030911A0340911B0350911C03C701B601DB
:1009D0000E943A0B2091090330910A0340910B03C6
:1009E00050910C030E940B0D9B01AC01C501B40199
:1009F0000E943A0B609315037093160380931703BC
:100A000090931803C0921903D0921A03E0921B032B
:100A1000F0921C0360933A0270933B0280933C0275
:100A200090933D020E941E0CC0903602D090370277
:100A3000E0903802F0903902C60ED71EE81EF91E6B
:100A400084E6C816D104E104F104A4F48DE9C816C3
:100A50008FEFD806E806F806ECF186E0C816D10458
:100A6000E104F1046CF0B60182E00E94450370E0FD
:100A700060E018C094E6C92ED12CE12CF12CF3CF04
:100A800070E060E08BEFC8168FEFD806E806F80636
:100A90005CF770E060E082E00E94450366277727FC
:100AA0006C197D0983E00E944503C0923602D09202
:100AB0003702E0923802F0923902FF90EF90DF9017
:100AC000CF90BF90AF909F908F907F906F905F90EE
:100AD0004F9008958CE9C82EDD24DA94ED2CFD2C7E
:100AE000D8CF29B18091420290914302A091440253
:100AF000B091450223702150223060F00196A11D73
:100B0000B11D8093420290934302A0934402B0939C
:100B1000450208950197A109B109F3CF29B1809148
:100B2000420290914302A0914402B0914502237089
:100B30002150223060F00197A109B109809342024F
:100B400090934302A0934402B09345020895019606
:100B5000A11DB11DF3CFFC0101900020E9F73197F1
:100B6000AF01481B590BBC0184E692E00C9485014F
:100B70008F929F92AF92BF920F931F93CF93DF9369
:100B8000CDB7DEB7A1970FB6F894DEBF0FBECDBFCD
:100B900019A2423008F44AE08E010F5D1F4F842EE7
:100BA000912CB12CA12CA50194010E947D0DE62F62
:100BB000B901CA01EA30F4F4E05DD801EE938D0189
:100BC000232B242B252B79F790E080E0109719F048
:100BD000CD010E94AB05A1960FB6F894DEBF0FBE03
:100BE000CDBFDF91CF911F910F91BF90AF909F909C
:100BF0008F900895E95CE1CF1F920F920FB60F928C
:100C000011240BB60F922F933F934F935F936F93E3
:100C10007F938F939F93AF93BF93EF93FF9384E65C
:100C200092E00E94F901FF91EF91BF91AF919F91E6
:100C30008F917F916F915F914F913F912F910F9085
:100C40000BBE0F900FBE0F901F9018951F920F9222
:100C50000FB60F9211240BB60F922F938F939F9381
:100C6000EF93FF93E0917402F09175028081E0911F
:100C70007A02F0917B0282FD1DC0908180917D02FD
:100C80008F5F8F7320917E02821741F0E0917D0289
:100C9000F0E0EC59FD4F958F80937D02FF91EF912D
:100CA0009F918F912F910F900BBE0F900FBE0F90C1
:100CB0001F9018958081F2CF1F920F920FB60F925E
:100CC00011242F933F938F939F93AF93BF93809162
:100CD000470290914802A0914902B0914A02309196
:100CE000460223E0230F2D3758F50196A11DB11DB3
:100CF000209346028093470290934802A0934902B2
:100D0000B0934A0280914B0290914C02A0914D0207
:100D1000B0914E020196A11DB11D80934B0290939C
:100D20004C02A0934D02B0934E02BF91AF919F91A0
:100D30008F913F912F910F900FBE0F901F9018959C
:100D400026E8230F0296A11DB11DD2CF1F920F924C
:100D50000FB60F9211240BB60F922F933F934F9320
:100D60005F936F937F938F939F93AF93BF93EF9313
:100D7000FF93E0910E02F0910F021995FF91EF9110
:100D8000BF91AF919F918F917F916F915F914F91A3
:100D90003F912F910F900BBE0F900FBE0F901F90A1
:100DA00018951F920F920FB60F9211240BB60F9247
:100DB0002F933F934F935F936F937F938F939F9363
:100DC000AF93BF93EF93FF93E0910C02F0910D026C
:100DD0001995FF91EF91BF91AF919F918F917F9165
:100DE0006F915F914F913F912F910F900BBE0F909C
:100DF0000FBE0F901F9018951F920F920FB60F9273
:100E000011240BB60F922F933F934F935F936F93E1
:100E10007F938F939F93AF93BF93EF93FF93E09153
:100E20000202F09103021995FF91EF91BF91AF91EA
:100E30009F918F917F916F915F914F913F912F91F2
:100E40000F900BBE0F900FBE0F901F9018951F9222
:100E50000F920FB60F9211240BB60F922F933F9360
:100E60004F935F936F937F938F939F93AF93BF93B2
:100E7000EF93FF93E0910002F09101021995FF9129
:100E8000EF91BF91AF919F918F917F916F915F9102
:100E90004F913F912F910F900BBE0F900FBE0F906F
:100EA0001F9018951F920F920FB60F9211240BB638
:100EB0000F922F933F934F935F936F937F938F93F3
:100EC0009F93AF93BF93EF93FF93E0910A02F0914A
:100ED0000B021995FF91EF91BF91AF919F918F9167
:100EE0007F916F915F914F913F912F910F900BBE2A
:100EF0000F900FBE0F901F9018951F920F920FB674
:100F00000F9211240BB60F922F933F934F935F9341
:100F10006F937F938F939F93AF93BF93EF93FF93C1
:100F2000E0910802F09109021995FF91EF91BF91AC
:100F3000AF919F918F917F916F915F914F913F9171
:100F40002F910F900BBE0F900FBE0F901F90189512
:100F50001F920F920FB60F9211240BB60F922F9380
:100F60003F934F935F936F937F938F939F93AF9331
:100F7000BF93EF93FF93E0910602F091070219955A
:100F8000FF91EF91BF91AF919F918F917F916F9161
:100F90005F914F913F912F910F900BBE0F900FBE1D
:100FA0000F901F9018951F920F920FB60F92112459
:100FB0000BB60F922F933F934F935F936F937F9353
:100FC0008F939F93AF93BF93EF93FF93E0910402AE
:100FD000F09105021995FF91EF91BF91AF919F910B
:100FE0008F917F916F915F914F913F912F910F90D2
:100FF0000BBE0F900FBE0F901F9018951F920F926F
:101000000FB60F9211240BB60F922F933F934F936D
:101010005F936F937F938F939F93AF93BF93EF9360
:10102000FF9380915502909156028093B200809177
:10103000580290915902A0915A02B0915B02019618
:10104000A11DB11D8093580290935902A0935A029A
:10105000B0935B028091580290915902A0915A027C
:10106000B0915B0240915102509152026091530243
:101070007091540284179507A607B70710F1809165
:10108000570281111EC081E080935702809158025F
:1010900090915902A0915A02B0915B02841B950B6A
:1010A000A60BB70B8093580290935902A0935A0253
:1010B000B0935B02E0914F02F091500219951092AB
:1010C0005702FF91EF91BF91AF919F918F917F91C7
:1010D0006F915F914F913F912F910F900BBE0F90A9
:1010E0000FBE0F901F901895E4E6F2E01382128273
:1010F00088EE93E0A0E0B0E084839583A683B78375
:1011000088E192E09183808385EC90E095878487E5
:1011100084EC90E09787868780EC90E0918B808BC1
:1011200081EC90E0938B828B82EC90E0958B848BAA
:1011300086EC90E0978B868B118E128E138E148E18
:10114000E1E2F3E083EE95EAABE1BDE380839183D6
:10115000A283B38314821582168217828DEC9CECD5
:10116000ACECBDE380879187A287B387E1E0F3E031
:1011700080E090E0A0E0B0E480839183A283B38319
:10118000148215821682178280E090E0A6E0B2E415
:1011900080879187A287B3870895789484B5826009
:1011A00084BD84B5816084BD85B5826085BD85B50B
:1011B000816085BD80916E00816080936E00109289
:1011C0008100809181008260809381008091810004
:1011D0008160809381008091800081608093800095
:1011E0008091B10084608093B1008091B0008160F3
:1011F0008093B000809191008260809391008091F3
:101200009100816080939100809190008160809333
:1012100090008091A10082608093A1008091A10044
:1012200081608093A1008091A00081608093A000E4
:101230008091210182608093210180912101816050
:101240008093210180912001816080932001809111
:101250007A00846080937A0080917A008260809323
:101260007A0080917A00816080937A0080917A0080
:10127000806880937A001092C10081E795E0909396
:10128000050280930402809169008C7F81608093C5
:101290006900E89A8EE895E0909307028093060231
:1012A00080916900837F846080936900E99A70E08F
:1012B00060E082E00E94450370E060E083E00E940D
:1012C0004503E0917402F091750282E08083E09121
:1012D0007002F09171021082E0917202F09173023B
:1012E00080E1808310927C02E0917802F091790293
:1012F00086E08083E0917602F091770280818061C0
:101300008083E0917602F09177028081886080830B
:10131000E0917602F0917702808180688083E0918D
:101320007602F091770280818F7D80838AE090E061
:10133000A0E0B0E08093510290935202A093530238
:10134000B093540284E594E09093500280934F024E
:10135000809170008E7F809370008091B0008C7FB0
:101360008093B0008091B100877F8093B10080911D
:10137000B6008F7D8093B600809170008D7F809342
:1013800070008091B10084608093B1008091B100C1
:101390008C7F8093B10086E090E09093560280931A
:1013A0005502109258021092590210925A0210924D
:1013B0005B021092570280915502909156028093E1
:1013C000B200809170008160809370008090100264
:1013D00090901102A0901202B0901302C09060028F
:1013E000D0906102E0906202F090630220E030E071
:1013F00044E352E4C501B4010E943B0BA7019601EE
:101400000E943A0B9F7720E030E040E450E40E94D5
:10141000A70B18160CF493C080915C0290915D02AA
:10142000A0915E02B0915F0284369105A105B105DD
:10143000E4F1B7FAB094B7F8B094809210029092A9
:101440001102A0921202B092130210920D03109298
:101450000E0310920F0310921003109211031092BA
:10146000120310921303109214031092150310929A
:10147000160310921703109218031092190310927A
:101480001A0310921B0310921C0310921D0310925A
:101490001E0310921F031092200310925C02109200
:1014A0005D0210925E0210925F0280915C02909148
:1014B0005D02A0915E02B0915F020196A11DB11D77
:1014C00080935C0290935D02A0935E02B0935F02F2
:1014D000A7019601C701B6010E94780D8823C1F1CA
:1014E00086E292E00E94AB0582E392E00E94AB05A7
:1014F0000E942E044B015C018AE0C82ED12CE12C05
:10150000F12C0E942E04681979098A099B09683E0A
:10151000734081059105A8F321E0C21AD108E108C2
:10152000F10888EE880E83E0981EA11CB11CC1143E
:10153000D104E104F10429F70E94880247CF1092F8
:101540005C0210925D0210925E0210925F02C0CFA8
:1015500046015701E894B7F82FEF3FEF4FE75FE7F9
:10156000C501B4010E94780D81110DC02FEF3FEF2E
:101570004FE75FE7C501B4010E94A70B18161CF4E2
:101580008AE292E0AFCF2FEF3FEF4FE75FE4C70172
:10159000B6010E94060D18161CF48EE292E0A2CF4E
:1015A0002FEF3FEF4FE75FECC701B6010E94A70B9B
:1015B00087FDF3CF20E030E0A901C701B6010E940A
:1015C000A70B87FF09C06DE284E692E00E941B0230
:1015D000F7FAF094F7F8F0942AE037ED43EA5BE38A
:1015E000C701B6010E943B0B4B015C010E94250C18
:1015F0006B017C010E94540C9B01AC01C501B4013C
:101600000E943A0B4B015C014AE0C701B6010E94FF
:10161000B8056EE284E692E00E941B0220E030E012
:1016200040E251E4C501B4010E940B0D4B015C0185
:101630000E94250C6B01F12CE12C4AE0C701B60198
:101640000E94B805C701B6010E94540C9B01AC0171
:10165000C501B4010E943A0B20E030E040E251E4C1
:101660000E940B0D0E94250C90E080E04AE00E9451
:10167000B8053ACF5058BB27AA270E94520B0C94AA
:10168000CC0C0E94BE0C38F00E94C50C20F039F43E
:101690009F3F19F426F40C94BB0C0EF4E095E7FB85
:1016A0000C94B50CE92F0E94DD0C58F3BA176207B1
:1016B00073078407950720F079F4A6F50C94FF0CC6
:1016C0000EF4E0950B2EBA2FA02D0B01B90190015D
:1016D0000C01CA01A0011124FF27591B99F0593FA1
:1016E00050F4503E68F11A16F040A22F232F342FE9
:1016F0004427585FF3CF469537952795A795F04037
:101700005395C9F77EF41F16BA0B620B730B840B4B
:10171000BAF09150A1F0FF0FBB1F661F771F881F03
:10172000C2F70EC0BA0F621F731F841F48F487955B
:1017300077956795B795F7959E3F08F0B0CF93954D
:10174000880F08F09927EE0F9795879508950E94C6
:10175000910C08F481E008950E94C00B0C94CC0C0D
:101760000E94C50C58F00E94BE0C40F029F45F3F67
:1017700029F00C94B50C51110C94000D0C94BB0C79
:101780000E94DD0C68F39923B1F3552391F3951B67
:10179000550BBB27AA2762177307840738F09F5F92
:1017A0005F4F220F331F441FAA1FA9F335D00E2EFF
:1017B0003AF0E0E832D091505040E695001CCAF76C
:1017C0002BD0FE2F29D0660F771F881FBB1F26172F
:1017D00037074807AB07B0E809F0BB0B802DBF0106
:1017E000FF2793585F4F3AF09E3F510578F00C94D5
:1017F000B50C0C94000D5F3FE4F3983ED4F386954E
:1018000077956795B795F7959F5FC9F7880F911DF5
:101810009695879597F90895E1E0660F771F881FE1
:10182000BB1F621773078407BA0720F0621B730B94
:10183000840BBA0BEE1F88F7E09508950E94250CE3
:101840006894B1110C94000D08950E94E50C88F085
:101850009F5798F0B92F9927B751B0F0E1F0660F74
:10186000771F881F991F1AF0BA95C9F714C0B130B5
:1018700091F00E94FF0CB1E008950C94FF0C672FCB
:10188000782F8827B85F39F0B93FCCF386957795E4
:101890006795B395D9F73EF49095809570956195CD
:1018A0007F4F8F4F9F4F0895E89409C097FB3EF4F8
:1018B00090958095709561957F4F8F4F9F4F99239D
:1018C000A9F0F92F96E9BB279395F695879577951B
:1018D0006795B795F111F8CFFAF4BB0F11F460FFDB
:1018E0001BC06F5F7F4F8F4F9F4F16C0882311F033
:1018F00096E911C0772321F09EE8872F762F05C047
:10190000662371F096E8862F70E060E02AF09A95E1
:10191000660F771F881FDAF7880F9695879597F9D6
:101920000895990F0008550FAA0BE0E8FEEF161670
:101930001706E807F907C0F012161306E407F507C3
:1019400098F0621B730B840B950B39F40A2661F037
:10195000232B242B252B21F408950A2609F4A140DA
:10196000A6958FEF811D811D089597F99F6780E8E7
:1019700070E060E008959FEF80EC089500240A94E1
:101980001616170618060906089500240A9412165A
:101990001306140605060895092E0394000C11F48D
:1019A000882352F0BB0F40F4BF2B11F460FF04C03A
:1019B0006F5F7F4F8F4F9F4F089557FD9058440F93
:1019C000551F59F05F3F71F04795880F97FB991F9E
:1019D00061F09F3F79F0879508951216130614065B
:1019E000551FF2CF4695F1DF08C0161617061806E8
:1019F000991FF1CF86957105610508940895E894C3
:101A0000BB2766277727CB0197F908950E94910C91
:101A100008F48FEF08950E941E0D0C94CC0C0E94C8
:101A2000BE0C38F00E94C50C20F0952311F00C94E8
:101A3000B50C0C94BB0C11240C94000D0E94DD0C11
:101A400070F3959FC1F3950F50E0551F629FF00111
:101A5000729FBB27F00DB11D639FAA27F00DB11D2A
:101A6000AA1F649F6627B00DA11D661F829F2227B3
:101A7000B00DA11D621F739FB00DA11D621F839F3A
:101A8000A00D611D221F749F3327A00D611D231F10
:101A9000849F600D211D822F762F6A2F11249F575E
:101AA00050409AF0F1F088234AF0EE0FFF1FBB1F61
:101AB000661F771F881F91505040A9F79E3F510520
:101AC00080F00C94B50C0C94000D5F3FE4F3983E4D
:101AD000D4F3869577956795B795F795E7959F5FCA
:101AE000C1F7FE2B880F911D9695879597F908955C
:101AF0000E94910C880B990B0895A1E21A2EAA1B43
:101B0000BB1BFD010DC0AA1FBB1FEE1FFF1FA217AD
:101B1000B307E407F50720F0A21BB30BE40BF50BAA
:101B2000661F771F881F991F1A9469F76095709533
:101B3000809590959B01AC01BD01CF010895EE0FFA
:101B4000FF1F881F8BBF0790F691E02D1994F89422
:021B5000FFCFC5
:101B520053045304530453045304530453045304CB
:101B620000003442000000001B028501B20168023D
:101B7200E301C101D5016E616E00696E66006F7688
:061B820066000D0A0000E0
:00000001FF
